{
  "contractName": "Ownable",
  "abi": [
    {
      "inputs": [
        {
          "internalType": "address",
          "name": "owner_",
          "type": "address"
        }
      ],
      "stateMutability": "nonpayable",
      "type": "constructor"
    },
    {
      "anonymous": false,
      "inputs": [
        {
          "indexed": false,
          "internalType": "address",
          "name": "oldOwner",
          "type": "address"
        },
        {
          "indexed": false,
          "internalType": "address",
          "name": "newOwner",
          "type": "address"
        }
      ],
      "name": "UpdateOwner",
      "type": "event"
    },
    {
      "inputs": [],
      "name": "owner",
      "outputs": [
        {
          "internalType": "address",
          "name": "",
          "type": "address"
        }
      ],
      "stateMutability": "view",
      "type": "function"
    },
    {
      "inputs": [
        {
          "internalType": "address",
          "name": "newOwner",
          "type": "address"
        }
      ],
      "name": "updateOwner",
      "outputs": [],
      "stateMutability": "nonpayable",
      "type": "function"
    }
  ],
  "bytecode": "0x608060405234801561001057600080fd5b5060405161023f38038061023f83398101604081905261002f91610054565b600080546001600160a01b0319166001600160a01b0392909216919091179055610084565b60006020828403121561006657600080fd5b81516001600160a01b038116811461007d57600080fd5b9392505050565b6101ac806100936000396000f3fe608060405234801561001057600080fd5b50600436106100365760003560e01c8063880cdc311461003b5780638da5cb5b14610050575b600080fd5b61004e610049366004610146565b61007f565b005b600054610063906001600160a01b031681565b6040516001600160a01b03909116815260200160405180910390f35b6000546001600160a01b031633146100dd5760405162461bcd60e51b815260206004820152601c60248201527f6f6e6c79206f776e65722063616e206d616b65207468652063616c6c00000000604482015260640160405180910390fd5b600054604080516001600160a01b03928316815291831660208301527fe2c7d1c4da37855e682bde14f17826d185497973b73fba7554daa6da467058d9910160405180910390a1600080546001600160a01b0319166001600160a01b0392909216919091179055565b60006020828403121561015857600080fd5b81356001600160a01b038116811461016f57600080fd5b939250505056fea2646970667358221220ba5128e9337bd36a0e7fc8cccdab3945f43aa2db99fb7f9eb492179013d4f5dd64736f6c63430008070033",
  "immutableReferences": {},
  "source": "// SPDX-License-Identifier: MIT\npragma solidity ^0.8.7;\n\ncontract Ownable {\n    event UpdateOwner(address oldOwner, address newOwner);\n\n    address public owner;\n\n    constructor(address owner_) {\n        owner = owner_;\n    }\n\n    function updateOwner(address newOwner) external ownerOnly {\n        emit UpdateOwner(owner, newOwner);\n        owner = newOwner;\n    }\n\n    modifier ownerOnly() {\n        require(msg.sender == owner, \"only owner can make the call\");\n        _;\n    }\n}\n",
  "sourcePath": "/Users/jieyilong/Theta/go/src/github.com/thetatoken/theta-protocol-subchain-management/contracts/lib/Ownable.sol",
  "compiler": {
    "name": "solc",
    "version": "0.8.7+commit.e28d00a7.Emscripten.clang"
  },
  "schemaVersion": "3.2.4",
  "updatedAt": "2023-01-31T01:05:47.704Z",
  "devdoc": {
    "kind": "dev",
    "methods": {},
    "version": 1
  },
  "userdoc": {
    "kind": "user",
    "methods": {},
    "version": 1
  }
}