{
  "contractName": "SubchainGovernanceToken",
  "abi": [
    {
      "inputs": [
        {
          "internalType": "string",
          "name": "name_",
          "type": "string"
        },
        {
          "internalType": "string",
          "name": "symbol_",
          "type": "string"
        },
        {
          "internalType": "uint8",
          "name": "decimals_",
          "type": "uint8"
        },
        {
          "internalType": "uint256",
          "name": "maxSupply_",
          "type": "uint256"
        },
        {
          "internalType": "address",
          "name": "minter_",
          "type": "address"
        },
        {
          "internalType": "uint256",
          "name": "stakerRewardPerBlock_",
          "type": "uint256"
        },
        {
          "internalType": "address",
          "name": "initDistrWallet_",
          "type": "address"
        },
        {
          "internalType": "uint256",
          "name": "initMintAmount_",
          "type": "uint256"
        },
        {
          "internalType": "address",
          "name": "admin_",
          "type": "address"
        }
      ],
      "stateMutability": "nonpayable",
      "type": "constructor"
    },
    {
      "anonymous": false,
      "inputs": [
        {
          "indexed": true,
          "internalType": "address",
          "name": "owner",
          "type": "address"
        },
        {
          "indexed": true,
          "internalType": "address",
          "name": "spender",
          "type": "address"
        },
        {
          "indexed": false,
          "internalType": "uint256",
          "name": "value",
          "type": "uint256"
        }
      ],
      "name": "Approval",
      "type": "event"
    },
    {
      "anonymous": false,
      "inputs": [
        {
          "indexed": true,
          "internalType": "address",
          "name": "from",
          "type": "address"
        },
        {
          "indexed": true,
          "internalType": "address",
          "name": "to",
          "type": "address"
        },
        {
          "indexed": false,
          "internalType": "uint256",
          "name": "value",
          "type": "uint256"
        }
      ],
      "name": "Transfer",
      "type": "event"
    },
    {
      "anonymous": false,
      "inputs": [
        {
          "indexed": false,
          "internalType": "address",
          "name": "newAdmin",
          "type": "address"
        }
      ],
      "name": "UpdateAdmin",
      "type": "event"
    },
    {
      "anonymous": false,
      "inputs": [
        {
          "indexed": false,
          "internalType": "address",
          "name": "newMinter",
          "type": "address"
        }
      ],
      "name": "UpdateMinter",
      "type": "event"
    },
    {
      "anonymous": false,
      "inputs": [
        {
          "indexed": false,
          "internalType": "uint256",
          "name": "newStakerRewardPerBlock",
          "type": "uint256"
        }
      ],
      "name": "UpdateStakerRewardPerBlock",
      "type": "event"
    },
    {
      "inputs": [],
      "name": "admin",
      "outputs": [
        {
          "internalType": "address",
          "name": "",
          "type": "address"
        }
      ],
      "stateMutability": "view",
      "type": "function",
      "constant": true
    },
    {
      "inputs": [
        {
          "internalType": "address",
          "name": "owner",
          "type": "address"
        },
        {
          "internalType": "address",
          "name": "spender",
          "type": "address"
        }
      ],
      "name": "allowance",
      "outputs": [
        {
          "internalType": "uint256",
          "name": "",
          "type": "uint256"
        }
      ],
      "stateMutability": "view",
      "type": "function",
      "constant": true
    },
    {
      "inputs": [
        {
          "internalType": "address",
          "name": "spender",
          "type": "address"
        },
        {
          "internalType": "uint256",
          "name": "amount",
          "type": "uint256"
        }
      ],
      "name": "approve",
      "outputs": [
        {
          "internalType": "bool",
          "name": "",
          "type": "bool"
        }
      ],
      "stateMutability": "nonpayable",
      "type": "function"
    },
    {
      "inputs": [
        {
          "internalType": "address",
          "name": "account",
          "type": "address"
        }
      ],
      "name": "balanceOf",
      "outputs": [
        {
          "internalType": "uint256",
          "name": "",
          "type": "uint256"
        }
      ],
      "stateMutability": "view",
      "type": "function",
      "constant": true
    },
    {
      "inputs": [
        {
          "internalType": "address",
          "name": "spender",
          "type": "address"
        },
        {
          "internalType": "uint256",
          "name": "subtractedValue",
          "type": "uint256"
        }
      ],
      "name": "decreaseAllowance",
      "outputs": [
        {
          "internalType": "bool",
          "name": "",
          "type": "bool"
        }
      ],
      "stateMutability": "nonpayable",
      "type": "function"
    },
    {
      "inputs": [
        {
          "internalType": "address",
          "name": "spender",
          "type": "address"
        },
        {
          "internalType": "uint256",
          "name": "addedValue",
          "type": "uint256"
        }
      ],
      "name": "increaseAllowance",
      "outputs": [
        {
          "internalType": "bool",
          "name": "",
          "type": "bool"
        }
      ],
      "stateMutability": "nonpayable",
      "type": "function"
    },
    {
      "inputs": [],
      "name": "maxSupply",
      "outputs": [
        {
          "internalType": "uint256",
          "name": "",
          "type": "uint256"
        }
      ],
      "stateMutability": "view",
      "type": "function",
      "constant": true
    },
    {
      "inputs": [],
      "name": "minter",
      "outputs": [
        {
          "internalType": "address",
          "name": "",
          "type": "address"
        }
      ],
      "stateMutability": "view",
      "type": "function",
      "constant": true
    },
    {
      "inputs": [],
      "name": "name",
      "outputs": [
        {
          "internalType": "string",
          "name": "",
          "type": "string"
        }
      ],
      "stateMutability": "view",
      "type": "function",
      "constant": true
    },
    {
      "inputs": [],
      "name": "symbol",
      "outputs": [
        {
          "internalType": "string",
          "name": "",
          "type": "string"
        }
      ],
      "stateMutability": "view",
      "type": "function",
      "constant": true
    },
    {
      "inputs": [],
      "name": "totalSupply",
      "outputs": [
        {
          "internalType": "uint256",
          "name": "",
          "type": "uint256"
        }
      ],
      "stateMutability": "view",
      "type": "function",
      "constant": true
    },
    {
      "inputs": [
        {
          "internalType": "address",
          "name": "to",
          "type": "address"
        },
        {
          "internalType": "uint256",
          "name": "amount",
          "type": "uint256"
        }
      ],
      "name": "transfer",
      "outputs": [
        {
          "internalType": "bool",
          "name": "",
          "type": "bool"
        }
      ],
      "stateMutability": "nonpayable",
      "type": "function"
    },
    {
      "inputs": [
        {
          "internalType": "address",
          "name": "from",
          "type": "address"
        },
        {
          "internalType": "address",
          "name": "to",
          "type": "address"
        },
        {
          "internalType": "uint256",
          "name": "amount",
          "type": "uint256"
        }
      ],
      "name": "transferFrom",
      "outputs": [
        {
          "internalType": "bool",
          "name": "",
          "type": "bool"
        }
      ],
      "stateMutability": "nonpayable",
      "type": "function"
    },
    {
      "inputs": [],
      "name": "decimals",
      "outputs": [
        {
          "internalType": "uint8",
          "name": "",
          "type": "uint8"
        }
      ],
      "stateMutability": "view",
      "type": "function",
      "constant": true
    },
    {
      "inputs": [
        {
          "internalType": "address",
          "name": "account",
          "type": "address"
        },
        {
          "internalType": "uint256",
          "name": "amount",
          "type": "uint256"
        }
      ],
      "name": "mintStakerReward",
      "outputs": [
        {
          "internalType": "bool",
          "name": "",
          "type": "bool"
        }
      ],
      "stateMutability": "nonpayable",
      "type": "function"
    },
    {
      "inputs": [],
      "name": "stakerRewardPerBlock",
      "outputs": [
        {
          "internalType": "uint256",
          "name": "",
          "type": "uint256"
        }
      ],
      "stateMutability": "view",
      "type": "function",
      "constant": true
    },
    {
      "inputs": [
        {
          "internalType": "uint256",
          "name": "stakerRewardPerBlock_",
          "type": "uint256"
        }
      ],
      "name": "updateStakerRewardPerBlock",
      "outputs": [],
      "stateMutability": "nonpayable",
      "type": "function"
    },
    {
      "inputs": [
        {
          "internalType": "address",
          "name": "minter_",
          "type": "address"
        }
      ],
      "name": "updateMinter",
      "outputs": [],
      "stateMutability": "nonpayable",
      "type": "function"
    },
    {
      "inputs": [
        {
          "internalType": "address",
          "name": "admin_",
          "type": "address"
        }
      ],
      "name": "updateAdmin",
      "outputs": [],
      "stateMutability": "nonpayable",
      "type": "function"
    }
  ],
  "bytecode": "0x60806040523480156200001157600080fd5b50604051620013b5380380620013b58339810160408190526200003491620004b3565b8851899089906200004d90600390602085019062000339565b5080516200006390600490602084019062000339565b5050506c010000000000000000000000008610620000c85760405162461bcd60e51b815260206004820152601360248201527f6d6178537570706c7920746f6f206c617267650000000000000000000000000060448201526064015b60405180910390fd5b85821115620001325760405162461bcd60e51b815260206004820152602f60248201527f696e697469616c20737570706c792073686f756c64206e6f742065786365656460448201526e20746865206d617820737570706c7960881b6064820152608401620000bf565b6005805460ff891660ff199091161790556007869055600880546001600160a01b038088166001600160a01b0319928316179092556006869055600980549284169290911691909117905562000189838362000254565b6008546040516001600160a01b0390911681527f94a0a7c0a7a455351029a521046d4438bc63e58a1ee8d984d624eb3161583b2c9060200160405180910390a16009546040516001600160a01b0390911681527fbfc8d7754fec5096becc28e0816011e8d0adcfe752ffa1c88924a7f88b00a41d9060200160405180910390a17fd65d781db82f0bd55f732ea1b96f4c6565750df815c18a70962cd8405274e2436006546040516200023d91815260200190565b60405180910390a150505050505050505062000607565b6001600160a01b038216620002ac5760405162461bcd60e51b815260206004820152601f60248201527f45524332303a206d696e7420746f20746865207a65726f2061646472657373006044820152606401620000bf565b8060026000828254620002c091906200058d565b90915550506001600160a01b03821660009081526020819052604081208054839290620002ef9084906200058d565b90915550506040518181526001600160a01b038316906000907fddf252ad1be2c89b69c2b068fc378daa952ba7f163c4a11628f55a4df523b3ef9060200160405180910390a35050565b8280546200034790620005b4565b90600052602060002090601f0160209004810192826200036b5760008555620003b6565b82601f106200038657805160ff1916838001178555620003b6565b82800160010185558215620003b6579182015b82811115620003b657825182559160200191906001019062000399565b50620003c4929150620003c8565b5090565b5b80821115620003c45760008155600101620003c9565b80516001600160a01b0381168114620003f757600080fd5b919050565b600082601f8301126200040e57600080fd5b81516001600160401b03808211156200042b576200042b620005f1565b604051601f8301601f19908116603f01168101908282118183101715620004565762000456620005f1565b816040528381526020925086838588010111156200047357600080fd5b600091505b8382101562000497578582018301518183018401529082019062000478565b83821115620004a95760008385830101525b9695505050505050565b60008060008060008060008060006101208a8c031215620004d357600080fd5b89516001600160401b0380821115620004eb57600080fd5b620004f98d838e01620003fc565b9a5060208c01519150808211156200051057600080fd5b506200051f8c828d01620003fc565b98505060408a015160ff811681146200053757600080fd5b60608b015190975095506200054f60808b01620003df565b945060a08a015193506200056660c08b01620003df565b925060e08a015191506200057e6101008b01620003df565b90509295985092959850929598565b60008219821115620005af57634e487b7160e01b600052601160045260246000fd5b500190565b600181811c90821680620005c957607f821691505b60208210811415620005eb57634e487b7160e01b600052602260045260246000fd5b50919050565b634e487b7160e01b600052604160045260246000fd5b610d9e80620006176000396000f3fe608060405234801561001057600080fd5b50600436106101115760003560e01c80634eb03f6e116100ad578063ab8e786f11610071578063ab8e786f1461024b578063d5abeb011461025e578063dd62ed3e14610267578063e2f273bd1461027a578063f851a4401461028d57600080fd5b80634eb03f6e146101e157806370a08231146101f457806395d89b411461021d578063a457c2d714610225578063a9059cbb1461023857600080fd5b806306fdde03146101165780630754617214610134578063095ea7b31461015457806318160ddd1461017757806323b872dd1461018957806324e770d01461019c57806329fb7ef6146101a4578063313ce567146101b957806339509351146101ce575b600080fd5b61011e6102a0565b60405161012b9190610c5c565b60405180910390f35b600854610147906001600160a01b031681565b60405161012b9190610c48565b610167610162366004610bec565b610332565b604051901515815260200161012b565b6002545b60405190815260200161012b565b610167610197366004610bb0565b61034c565b60065461017b565b6101b76101b2366004610c16565b610370565b005b60055460405160ff909116815260200161012b565b6101676101dc366004610bec565b6103df565b6101b76101ef366004610b62565b610401565b61017b610202366004610b62565b6001600160a01b031660009081526020819052604090205490565b61011e610477565b610167610233366004610bec565b610486565b610167610246366004610bec565b610501565b610167610259366004610bec565b61050f565b61017b60075481565b61017b610275366004610b7d565b61063b565b6101b7610288366004610b62565b610666565b600954610147906001600160a01b031681565b6060600380546102af90610d17565b80601f01602080910402602001604051908101604052809291908181526020018280546102db90610d17565b80156103285780601f106102fd57610100808354040283529160200191610328565b820191906000526020600020905b81548152906001019060200180831161030b57829003601f168201915b5050505050905090565b6000336103408185856106dc565b60019150505b92915050565b60003361035a858285610800565b61036585858561087a565b506001949350505050565b6009546001600160a01b031633146103a35760405162461bcd60e51b815260040161039a90610cb1565b60405180910390fd5b60068190556040518181527fd65d781db82f0bd55f732ea1b96f4c6565750df815c18a70962cd8405274e243906020015b60405180910390a150565b6000336103408185856103f2838361063b565b6103fc9190610ce8565b6106dc565b6009546001600160a01b0316331461042b5760405162461bcd60e51b815260040161039a90610cb1565b600880546001600160a01b0319166001600160a01b0383169081179091556040517f94a0a7c0a7a455351029a521046d4438bc63e58a1ee8d984d624eb3161583b2c916103d491610c48565b6060600480546102af90610d17565b60003381610494828661063b565b9050838110156104f45760405162461bcd60e51b815260206004820152602560248201527f45524332303a2064656372656173656420616c6c6f77616e63652062656c6f77604482015264207a65726f60d81b606482015260840161039a565b61036582868684036106dc565b60003361034081858561087a565b6008546000906001600160a01b0316331461056c5760405162461bcd60e51b815260206004820152601e60248201527f4f6e6c79206d696e7465722063616e206d616b6520746869732063616c6c0000604482015260640161039a565b6008546001600160a01b0316331461058657506000610346565b6000306001600160a01b03166318160ddd6040518163ffffffff1660e01b815260040160206040518083038186803b1580156105c157600080fd5b505afa1580156105d5573d6000803e3d6000fd5b505050506040513d601f19601f820116820180604052508101906105f99190610c2f565b9050600754811061060e576000915050610346565b60075461061b8285610a48565b11156106315760075461062e9082610a5b565b92505b6103408484610a67565b6001600160a01b03918216600090815260016020908152604080832093909416825291909152205490565b6009546001600160a01b031633146106905760405162461bcd60e51b815260040161039a90610cb1565b600980546001600160a01b0319166001600160a01b0383169081179091556040517fbfc8d7754fec5096becc28e0816011e8d0adcfe752ffa1c88924a7f88b00a41d916103d491610c48565b6001600160a01b03831661073e5760405162461bcd60e51b8152602060048201526024808201527f45524332303a20617070726f76652066726f6d20746865207a65726f206164646044820152637265737360e01b606482015260840161039a565b6001600160a01b03821661079f5760405162461bcd60e51b815260206004820152602260248201527f45524332303a20617070726f766520746f20746865207a65726f206164647265604482015261737360f01b606482015260840161039a565b6001600160a01b0383811660008181526001602090815260408083209487168084529482529182902085905590518481527f8c5be1e5ebec7d5bd14f71427d1e84f3dd0314c0f7b2291e5b200ac8c7c3b925910160405180910390a3505050565b600061080c848461063b565b9050600019811461087457818110156108675760405162461bcd60e51b815260206004820152601d60248201527f45524332303a20696e73756666696369656e7420616c6c6f77616e6365000000604482015260640161039a565b61087484848484036106dc565b50505050565b6001600160a01b0383166108de5760405162461bcd60e51b815260206004820152602560248201527f45524332303a207472616e736665722066726f6d20746865207a65726f206164604482015264647265737360d81b606482015260840161039a565b6001600160a01b0382166109405760405162461bcd60e51b815260206004820152602360248201527f45524332303a207472616e7366657220746f20746865207a65726f206164647260448201526265737360e81b606482015260840161039a565b6001600160a01b038316600090815260208190526040902054818110156109b85760405162461bcd60e51b815260206004820152602660248201527f45524332303a207472616e7366657220616d6f756e7420657863656564732062604482015265616c616e636560d01b606482015260840161039a565b6001600160a01b038085166000908152602081905260408082208585039055918516815290812080548492906109ef908490610ce8565b92505081905550826001600160a01b0316846001600160a01b03167fddf252ad1be2c89b69c2b068fc378daa952ba7f163c4a11628f55a4df523b3ef84604051610a3b91815260200190565b60405180910390a3610874565b6000610a548284610ce8565b9392505050565b6000610a548284610d00565b6001600160a01b038216610abd5760405162461bcd60e51b815260206004820152601f60248201527f45524332303a206d696e7420746f20746865207a65726f206164647265737300604482015260640161039a565b8060026000828254610acf9190610ce8565b90915550506001600160a01b03821660009081526020819052604081208054839290610afc908490610ce8565b90915550506040518181526001600160a01b038316906000907fddf252ad1be2c89b69c2b068fc378daa952ba7f163c4a11628f55a4df523b3ef9060200160405180910390a35050565b80356001600160a01b0381168114610b5d57600080fd5b919050565b600060208284031215610b7457600080fd5b610a5482610b46565b60008060408385031215610b9057600080fd5b610b9983610b46565b9150610ba760208401610b46565b90509250929050565b600080600060608486031215610bc557600080fd5b610bce84610b46565b9250610bdc60208501610b46565b9150604084013590509250925092565b60008060408385031215610bff57600080fd5b610c0883610b46565b946020939093013593505050565b600060208284031215610c2857600080fd5b5035919050565b600060208284031215610c4157600080fd5b5051919050565b6001600160a01b0391909116815260200190565b600060208083528351808285015260005b81811015610c8957858101830151858201604001528201610c6d565b81811115610c9b576000604083870101525b50601f01601f1916929092016040019392505050565b6020808252601d908201527f4f6e6c792061646d696e2063616e206d616b6520746869732063616c6c000000604082015260600190565b60008219821115610cfb57610cfb610d52565b500190565b600082821015610d1257610d12610d52565b500390565b600181811c90821680610d2b57607f821691505b60208210811415610d4c57634e487b7160e01b600052602260045260246000fd5b50919050565b634e487b7160e01b600052601160045260246000fdfea2646970667358221220638c35f0aee78fae7baa1f3d6695895b74083381230c1fa6fe6454d5a7ac881864736f6c63430008070033",
  "immutableReferences": {},
  "source": "// SPDX-License-Identifier: GPL-3.0\n\npragma solidity ^0.8.7;\n\nimport \"@openzeppelin/contracts/utils/math/SafeMath.sol\";\nimport \"@openzeppelin/contracts/token/ERC20/ERC20.sol\";\n\ncontract SubchainGovernanceToken is ERC20 {\n    using SafeMath for uint256;\n\n    event UpdateStakerRewardPerBlock(uint256 newStakerRewardPerBlock);\n    event UpdateAdmin(address newAdmin);\n    event UpdateMinter(address newMinter);\n\n    uint8 private _decimals;\n    uint256 private _stakerRewardPerBlock;\n\n    uint256 public maxSupply;\n    address public minter;\n    address public admin;\n\n    constructor(\n        string memory name_,\n        string memory symbol_,\n        uint8 decimals_,\n        uint256 maxSupply_,\n        address minter_,\n        uint256 stakerRewardPerBlock_,\n        address initDistrWallet_,\n        uint256 initMintAmount_,\n        address admin_\n    ) ERC20(name_, symbol_) {\n        require(maxSupply_ < 2**96, \"maxSupply too large\"); // if maxSupply is too large, it may lead to problems in staking reward calculation\n        require(\n            initMintAmount_ <= maxSupply_,\n            \"initial supply should not exceed the max supply\"\n        );\n        _decimals = decimals_;\n        maxSupply = maxSupply_;\n        minter = minter_;\n        _stakerRewardPerBlock = stakerRewardPerBlock_;\n        admin = admin_;\n        _mint(initDistrWallet_, initMintAmount_);\n        emit UpdateMinter(minter);\n        emit UpdateAdmin(admin);\n        emit UpdateStakerRewardPerBlock(_stakerRewardPerBlock);\n    }\n\n    function decimals() public view virtual override returns (uint8) {\n        return _decimals;\n    }\n\n    function mintStakerReward(address account, uint256 amount)\n        external\n        minterOnly\n        returns (bool)\n    {\n        if (msg.sender != minter) {\n            return false;\n        }\n        uint256 currentSupply = this.totalSupply();\n        if (currentSupply >= maxSupply) {\n            return false;\n        }\n        if (currentSupply.add(amount) > maxSupply) {\n            amount = maxSupply.sub(currentSupply);\n        }\n        _mint(account, amount);\n        return true;\n    }\n\n    function stakerRewardPerBlock() external view returns (uint256) {\n        return _stakerRewardPerBlock;\n    }\n\n    function updateStakerRewardPerBlock(uint256 stakerRewardPerBlock_)\n        external\n        adminOnly\n    {\n        _stakerRewardPerBlock = stakerRewardPerBlock_;\n        emit UpdateStakerRewardPerBlock(_stakerRewardPerBlock);\n    }\n\n    function updateMinter(address minter_) external adminOnly {\n        minter = minter_;\n        emit UpdateMinter(minter);\n    }\n\n    function updateAdmin(address admin_) external adminOnly {\n        admin = admin_;\n        emit UpdateAdmin(admin);\n    }\n\n    modifier adminOnly() {\n        require(msg.sender == admin, \"Only admin can make this call\");\n        _;\n    }\n\n    modifier minterOnly() {\n        require(msg.sender == minter, \"Only minter can make this call\");\n        _;\n    }\n}\n",
  "sourcePath": "/Users/jieyilong/Theta/go/src/github.com/thetatoken/theta-protocol-subchain-management/contracts/SubchainGovernanceToken.sol",
  "compiler": {
    "name": "solc",
    "version": "0.8.7+commit.e28d00a7.Emscripten.clang"
  },
  "schemaVersion": "3.2.4",
  "updatedAt": "2023-02-06T03:24:09.402Z",
  "networkType": "ethereum",
  "devdoc": {
    "kind": "dev",
    "methods": {
      "allowance(address,address)": {
        "details": "See {IERC20-allowance}."
      },
      "approve(address,uint256)": {
        "details": "See {IERC20-approve}. NOTE: If `amount` is the maximum `uint256`, the allowance is not updated on `transferFrom`. This is semantically equivalent to an infinite approval. Requirements: - `spender` cannot be the zero address."
      },
      "balanceOf(address)": {
        "details": "See {IERC20-balanceOf}."
      },
      "decimals()": {
        "details": "Returns the number of decimals used to get its user representation. For example, if `decimals` equals `2`, a balance of `505` tokens should be displayed to a user as `5.05` (`505 / 10 ** 2`). Tokens usually opt for a value of 18, imitating the relationship between Ether and Wei. This is the value {ERC20} uses, unless this function is overridden; NOTE: This information is only used for _display_ purposes: it in no way affects any of the arithmetic of the contract, including {IERC20-balanceOf} and {IERC20-transfer}."
      },
      "decreaseAllowance(address,uint256)": {
        "details": "Atomically decreases the allowance granted to `spender` by the caller. This is an alternative to {approve} that can be used as a mitigation for problems described in {IERC20-approve}. Emits an {Approval} event indicating the updated allowance. Requirements: - `spender` cannot be the zero address. - `spender` must have allowance for the caller of at least `subtractedValue`."
      },
      "increaseAllowance(address,uint256)": {
        "details": "Atomically increases the allowance granted to `spender` by the caller. This is an alternative to {approve} that can be used as a mitigation for problems described in {IERC20-approve}. Emits an {Approval} event indicating the updated allowance. Requirements: - `spender` cannot be the zero address."
      },
      "name()": {
        "details": "Returns the name of the token."
      },
      "symbol()": {
        "details": "Returns the symbol of the token, usually a shorter version of the name."
      },
      "totalSupply()": {
        "details": "See {IERC20-totalSupply}."
      },
      "transfer(address,uint256)": {
        "details": "See {IERC20-transfer}. Requirements: - `to` cannot be the zero address. - the caller must have a balance of at least `amount`."
      },
      "transferFrom(address,address,uint256)": {
        "details": "See {IERC20-transferFrom}. Emits an {Approval} event indicating the updated allowance. This is not required by the EIP. See the note at the beginning of {ERC20}. NOTE: Does not update the allowance if the current allowance is the maximum `uint256`. Requirements: - `from` and `to` cannot be the zero address. - `from` must have a balance of at least `amount`. - the caller must have allowance for ``from``'s tokens of at least `amount`."
      }
    },
    "version": 1
  },
  "userdoc": {
    "kind": "user",
    "methods": {},
    "version": 1
  }
}